:020000040800F2
:1000000030050020C5000008A9190008571600088F
:1000100000000000000000000000000000000000E0
:10002000000000000000000000000000AD19000802
:100030000000000000000000AB190008AF19000824
:10004000D700000800000000D7000008D700000813
:10005000D7000008D7000008D7000008D700000824
:1000600000000000D7000008D7000008D7000008F3
:10007000D7000008D7000008D700000800000000E3
:10008000D70000080000000000000000D7000008B2
:1000900000000000D7000008D7000008D7000008C3
:1000A00000000000D700000800000000D700000892
:1000B0000348854600F0F8FA004800470527000885
:1000C000300500200448804704480047FEE7FEE76B
:1000D000FEE7FEE7FEE7FEE7271A0008B10000088A
:1000E00030B50B46014600202022012409E00D46D0
:1000F000D5409D4205D31D469540491B2546954058
:1001000040191546521E002DF1DC30BDF0B51FB46C
:100110000646002082B005464024019100901BE075
:10012000019922460F46304600F020F8049A059BBC
:10013000801A994110D310461946224600F09DF8C6
:10014000361A8F410197224601200021009F00F0BE
:1001500094F838184D4100902046641E0028DFDCDA
:10016000019B00982946324607B0F0BD10B5202A01
:1001700004DB0846203AD040002110BD0B46D34096
:10018000D0402024A21A91400843194610BDD2B293
:1001900001E00270401C491EFBD270470022F6E7C6
:1001A00010B513460A4604461946FFF7F0FF2046ED
:1001B00010BD70B502464A40D50F40004A00ED0719
:1001C00040085208002814D0002A12D0C40DD30DC4
:1001D00041020120C0055202490A520AE41A0918D4
:1001E00012187D34914201D3641C00E04900002CB8
:1001F00001DA002070BD0023914201D3891A034324
:10020000400849000028F7D100290AD0914202D1C4
:100210000121C90705E0914201D2012101E001213C
:10022000C943E005C018401900F037F870BDC21787
:10023000C10F504010B54018CA079623002100F0A6
:1002400034F810BD10B500229623114600F02DF8A9
:1002500010BDC20FD207400040080BD0C10D0723CC
:10026000DB01C91840020905400A1143C2084007D2
:100270001143704700200146704710B5202A04DB67
:100280000146203A9140002010BD914020239C1A45
:100290000346E3401943904010BD002904DA401C96
:1002A000490001D140084000704770B40024050C9B
:1002B00005D11024000402D1002921D01124050EFB
:1002C00001D100020834050F01D10001241D850F62
:1002D00001D18000A41C002801DB4000641C00291F
:1002E00008D020252E1B0D46F540A14000D001214D
:1002F0002943084301061B1B000ADB1D02D5002011
:1003000070BC7047DB05181880180029F8DA401C0B
:100310004900F5D170BC400840007047F0B5074671
:100320000846584087B0C00F049048000E46590058
:1003300040084908BC1A884105D2384631461E4655
:1003400017460B4602465800400810434CD0300D6B
:10035000039040055900400D490D0590401A029048
:10036000402872DA18030121000B090508430190A7
:1003700004980092002805D001995242002088413B
:1003800000920190029840210A1A01990098FFF703
:1003900074FF05460C466B4607CB00F097F9C01971
:1003A0007141039A0E0D0023D71756401A467A4022
:1003B000164344D0049A002A2DD0029A012A039AA7
:1003C00015DC1205C01A914101263605001C714149
:1003D000D20F059ED2070093019202962A46234629
:1003E00000F094F907B0F0BD38463146FAE716053B
:1003F000224A0F46B218C01AB74101210905001C54
:100400004F4100187F41114618187941E20F1043FF
:100410006D19644113E0E2076D0815436408C207D3
:100420001443039A01261205C01A91413605001C97
:100430007141CE07400830434908C01851412A464F
:10044000234600F056F9CDE7FFE70498012240006B
:10045000C117121A00238B4104983146C417381A69
:10046000A141EEE730B40124E407634030BC55E716
:1004700030B40124E407614030BC4FE70000E0FFE6
:10048000F0B51FB488B00B99099800244840099929
:10049000C00F490049080991C0070B990090490015
:1004A00049080B9109990898A64608431CD00B9956
:1004B0000A98084318D0099801244000420D4800CA
:1004C000410D099824050003000B204309900B9867
:1004D0000003000B20430B9050181C4940180022C9
:1004E00001901446104605E0002001460DB0F0BD15
:1004F000032801DA034600E003239C46C11A0AAE32
:100500000AE05F0008ADED5B4F00F75B7D4300271D
:10051000AA187C41491C5B1E6145F2DD410004AB19
:100520005A522104120C0A43240C401C0828DFDB19
:10053000019802900099704601910090059B049AE1
:100540000799069800F0E2F8D0E700000DFCFFFFE5
:10055000F0B50C465C4085B0E40FE40703944C0012
:100560000026640859009446490802460296224330
:1005700021D062460A431ED06200570D4A000E0386
:100580002303550D012402462C492405781B1B0B1F
:10059000360B401823432643614600901C46501AF0
:1005A000B44103D30098401C009002E092180098D8
:1005B0005B41002803DA0020014605B0F0BD0020B1
:1005C000012109050746864611E064461D46141BB5
:1005D000B54106D36546521BB341744607430C43ED
:1005E000A646CD0740084908284392185B410546B6
:1005F0000D43EAD11046184313D0604619465040C7
:100600007140084306D06046101AB34106D2012259
:10061000002306E000220123DB0702E00122D2438F
:100620005310009874460105381C6141029C039DDB
:100630000019694100F05DF8BFE70000FD0300000C
:100640004A0009030123090B1B0519430A4B10B586
:10065000520D9A4202DA0020014610BD064B343397
:100660009A4203DC9A1AFFF781FD10BD034BD218A2
:10067000FFF703FE10BD0000FF030000CDFBFFFFEE
:1006800010B5002904DB0124E40740428C412146D7
:10069000002B04DB1C460123DB075242A341994295
:1006A00000D1904210BD0000064C0125064E05E029
:1006B000E36807CC2B430C3C98471034B442F7D383
:1006C000FFF7FAFC502900087029000810B5202A0D
:1006D00006DBCB170846203A1041C1170B4306E052
:1006E0000B461341D0402024A21A914008431946DA
:1006F00010BD10B5002B08DA0024401C614192188F
:100700005B411A4301D14008400010BDF0B51FB451
:1007100082B005460C0003D0084601F00FFB02E052
:1007200001F00CFB20300246009021462846FFF7DE
:10073000A4FD049B059A04460F4618431143084341
:1007400014D0184610431BD0009840210A1A1846AE
:100750000599FFF70BFD05460E46009A059904988A
:10076000FFF78BFD084305D0012004E02046394601
:1007700007B0F0BD0020C11705430E432C4337439B
:1007800000990E986305401A7905E40A00220C438B
:10079000FD0A0A3002D500200146E9E701051019DB
:1007A00069410C9C0D9D00196941FFF7A2FFDFE72D
:1007B00072B6FEE770B5044600F0D4F80546601C3A
:1007C00002D004480078241800F0CCF8401BA04266
:1007D000FAD370BD0C000020FCB500230124A1E079
:1007E00027462A469F403A4073D04D68012D05D0D8
:1007F000022D03D0112D01D0122D16D185680326AC
:10080000AC465D00AE46AE406546B543AC46CE68EC
:100810007546AE4065462E43866046680D79BE43F8
:10082000ED06ED0F9D4035434560C6685F0003252A
:10083000BD40AE46AE4335468E68BE402E43C660D0
:100840004E68022E01D0122E14D1DE08B6003618E2
:100850000196366A5D07B446EE0E0F25B540009648
:100860006646AE43B4460D69009EB54066462E43CB
:10087000019D2E6206687546AE430D79AD07AD0F3A
:10088000BD40354305604D68ED004AD5284DAE6941
:100890002643AE61AD699E08ED07ED0F0095254D2D
:1008A000B6007519AC46AD689E07360F0F27B740E6
:1008B000BD430927FF06B84201D1002710E01E4FB3
:1008C000B84201D101270BE01C4FB84202D10227E8
:1008D00006E026E01A4FB84201D1032700E00527C1
:1008E000B7402F436546AF60164E35684F68954355
:1008F000FF0300D51543356075684F689543BF0306
:1009000000D515437560B5684F689543FF0200D563
:100910001543B560F5684F689543BF0200D5154390
:10092000F5605B1C0A681546DA4000D058E7FCBD4C
:100930000010024000000140000400480008004888
:10094000000C004800040140426913460B401B04A0
:1009500091430B4383617047002A01D08161704746
:100960008162704701488068704700000C000020D9
:1009700070B5024640325378202B1CD11378012BDE
:1009800019D00123137024245470046825689D43F2
:100990002560046825681E03B54325600468256842
:1009A0000D432560006801681943016020205070E4
:1009B0000020107070BD022070BD70B5024640323C
:1009C0005378202B1BD11378012B18D001241470DD
:1009D0002423537003681D68A5431D6005682B68B8
:1009E0000F263602B34309021943296000680168E3
:1009F00021430160202050700020107070BD022043
:100A000070BD000070B5040006D0254640356878FA
:100A10000026002802D005E0012070BD2E7020467F
:100A200000F05AF9242068702068016849084900DC
:100A300001600F2160680906884321680861216808
:100A40008A680120C00382438A60E1680129A168A5
:100A500008D021229202114322689160E1680229A4
:100A600002D005E00143F7E701212268C902516085
:100A700021684A680F4B1A434A602168CA6882435A
:100A8000CA60616920690843A169090208432168B5
:100A9000C860216AE069084321680860206801682D
:100AA0000122114301606664202068702663AE70E5
:100AB000002070BD00800002FFB5054604464035A9
:100AC000687881B0202878D12878012875D0012055
:100AD0002870FFF747FF0746012200901923D10332
:100AE000204600F017FE00283CD12220687010201C
:100AF000A870002666640398606204986085666347
:100B0000618D2F48FF2903D9FF22228500903BE009
:100B1000618D218500903DE02046029900F0E6FDC0
:100B200016E000F01FFE00281CD12068406A616AB0
:100B30000870606A401C6062208D401E81B2218571
:100B4000608D401E6085608D002801D000290CD08A
:100B5000608D0A9900283A462046E2D100F042FE14
:100B600000281CD0012005B0F0BD00970022802194
:100B700020460A9B00F0CEFD0028F3D1608DFF28AF
:100B800005D9FF222285009601231B06C4E7608D4C
:100B900020850096208D0123C2B25B06BCE7216848
:100BA0002020C86121684A68064B1A404A60687074
:100BB000AE702E700020D6E7FFE70220D3E70000DA
:100BC0000024008000E800FEFFB5054604464035DD
:100BD000687881B0202878D12878012875D0012044
:100BE0002870FFF7BFFE0746012200901923D103AA
:100BF000204600F08FFD00283CD121206870102095
:100C0000A870002666640398606204986085666335
:100C1000618D2F48FF2903D9FF22228500903BE0F8
:100C2000618D218500903DE02046029900F05EFD37
:100C300016E000F0FDFD00281CD1606A21680078F4
:100C40008862606A401C6062608D401E6085208DF5
:100C5000401E80B22085618D002901D000280CD073
:100C6000608D0A9900283A462046E2D100F0BAFD8C
:100C700000281CD0012005B0F0BD00970022802183
:100C800020460A9B00F046FD0028F3D1608DFF2826
:100C900005D9FF222285009601231B06C4E7608D3B
:100CA00020850096208D0123C2B25B06BCE7216837
:100CB0002020C86121684A68064B1A404A60687063
:100CC000AE702E700020D6E7FFE70220D3E70000C9
:100CD0000020008000E800FE10B586B00446142114
:100CE0006846FFF75BFA13492068884220D1124C0E
:100CF0006169012040040143616161690140032091
:100D000005914002009012200190012002900320E2
:100D100003900420049009206946C006FFF75CFD9B
:100D2000E169012040050143E161E169014005916C
:100D300006B010BD005400400010024070B5040021
:100D40000FD021681348086021681348086003CC5D
:100D500041602068083C21688860FFF703FE054673
:100D600008E0012070BDFFF7FDFD401B262801D9DA
:100D7000032070BD2068C0680028F4D12068026993
:100D8000E1688A4201D0016101E00449016000206C
:100D900070BD0000CCCC000055550000AAAA000090
:100DA000006802490160002070470000AAAA000004
:100DB0000248816802788918816070470C00002021
:100DC00010B506480168102211430160002000F0B0
:100DD00007F800F027F8002010BD000000200240B6
:100DE00070B504460D4D7D202978C000FFF778F9D5
:100DF00001460B480068FFF773F900F07BFB002801
:100E000009D1042C07D200222146401E00F01EF812
:100E100000206C6070BD012070BD00000C0000203F
:100E20001800002008B5084881690122114381613A
:100E3000816911400091C26901040A43C261C0691D
:100E40000840009008BD00000010024010B500F0FE
:100E5000A5FF10BDF8B505460068354CC00352D556
:100E6000E0690026C00007D4E16920040143E16184
:100E7000E1690140012600912E480168C90510D49E
:100E80000168821511430160FFF76CFD074604E01D
:100E9000FFF768FDC01B642824D826480068C005F9
:100EA000F6D5206A03273F02384020D069683940D0
:100EB00081421CD0206A226AB843012109040A43F6
:100EC0002262226A8A4322622062C0070FD0FFF7A3
:100ED00049FD009008E0FFF745FD0099411A1648CA
:100EE000814201D90320F8BD206A8007F3D5206A2A
:100EF0006968B84308432062002E04D0E1690120EC
:100F000000078143E1612878C00705D0206BA968FC
:100F100080088000084320632878800605D5206B70
:100F200010218843E968084320630020F8BD0000D1
:100F3000001002400070004088130000F8B50F4612
:100F4000060059D03A4D2868C007C00FB84209D2F0
:100F5000286840084000384328602868C007C00F50
:100F6000B84249D13068334C81070CD5400704D5CD
:100F7000606807210902084360606068F0218843C7
:100F8000B168084360603078C00726D070680128D7
:100F90000ED0216802280ED0890700292CDA61685A
:100FA0008908890001436160FFF7DCFC00900DE0D7
:100FB00021688903F1E78901EFE7FFF7D3FC009986
:100FC000411A1D48814201D90320F8BD60680C21F7
:100FD0000840716889008842EFD12868C007C00FB7
:100FE000B8420BD928684008400038432860286878
:100FF000C007C00FB84201D00120F8BD30784007CB
:1010000006D56068072109028843F16808436060DB
:1010100000F028F86168094A0906090F515CC840C8
:10102000074908600020FFF7DBFE0020F8BD000044
:1010300000200240001002408813000038290008F8
:10104000180000200448054900684968044A490519
:10105000490F515CC8407047180000200010024042
:101060004829000810B514A30FCB88B06C460FC4F4
:1010700015A30FCB0FC4184A51680C200B46034030
:101080001648042B16D0082B14D18B021B0F6C466C
:10109000E45CD26A04AB1207120F9A5CC90305D54F
:1010A00000231946FFF732F8214601E020460C499B
:1010B00000F05BFE08B010BD020304050607080936
:1010C0000A0B0C0D0E0F1010010203040506070891
:1010D000090A0B0C0D0E0F100010024000127A00CE
:1010E00000093D00FEB5040070D02078DC4DC0073B
:1010F0004AD068680007800F012807D06868000799
:10110000800F022809D16868C00306D528688003CB
:101110003AD560680028E7D036E06168012914D02C
:1011200001208004002901D0052914D02A6801215A
:1011300009048A432A60296881432960606800287D
:1011400016D0FFF70FFC06460EE0286801210904BF
:1011500008432860F2E7296801432960F5E7FFF7B3
:1011600001FC801B64286ED828688003F7D50BE04B
:10117000FFF7F8FB064604E0FFF7F4FB801B64284A
:10118000F1D828688003F7D420780126800700284A
:101190003CDA68680007800F07D068680007800F96
:1011A000022809D16868C00306D42868800716D5CC
:1011B000E06801280AD112E0E0680028286816D00B
:1011C00030432860FFF7CEFB074605E043E1FFF719
:1011D000C9FBC01B0228C6D828688007F7D5286835
:1011E000F82188432169C900084328600EE04008BF
:1011F00040002860FFF7B6FB074604E0FFF7B2FBAC
:10120000C01B0228AFD828688007F7D420780007D1
:1012100022D5E0690028686A0ED030436862FFF783
:10122000A1FB074604E0FFF79DFBC01B02289AD8EC
:10123000686A8007F7D50FE0400840006862FFF752
:1012400091FB074605E09DE0FFF78CFBC01B0228E1
:1012500089D8686A8007F7D42078042740070028D7
:1012600060DA00200190E869C00008D4E969B80696
:101270000143E961E9690140012000910190794849
:101280000168C90511D40168821511430160FFF797
:1012900069FB009005E0FFF765FB0099401A6428A0
:1012A00070D870480068C005F5D5A06801280AD03C
:1012B000002801D0052810D0286A40084000286284
:1012C000286AB84301E0286A30432862A0680028F1
:1012D00012D0FFF747FB00900AE0286A38432862E3
:1012E000F1E7FFF73FFB0099411A5F48814249D877
:1012F000286A8007F5D50DE0FFF734FB009006E083
:10130000FFF730FB0099411A574881423AD8286AC2
:101310008007F5D40198002804D0E969012000076E
:101320008143E9612078C00635D5606901280CD079
:10133000401D686B23D038436863686B40084000E9
:101340006863FFF70FFB064622E0686B384368636B
:10135000686B30436863FFF705FB064604E0FFF760
:1013600001FB801B02285BD8686B8007F7D5686B90
:10137000F8218843A169C900084368630BE0B843BA
:101380006863F4E74CE0FFF7EDFA801B022847D8CA
:10139000686B8007F7D4206A00285ED06968090767
:1013A000890F022942D0012636060228286805D076
:1013B000B0432860FFF7D6FA044633E0B043286014
:1013C000FFF7D0FA074604E0FFF7CCFAC01B02286B
:1013D00026D828688001F7D4E86AE16A000900018C
:1013E0000843E862616AA06A084369683D22120402
:1013F000914308436860286830432860FFF7B2FAD9
:10140000044604E0FFF7AEFA001B022808D828685B
:101410008001F7D521E0FFF7A5FA001B022801D9CA
:101420000320FEBD28688001F5D416E00128F8D01D
:101430006868E96A01221204636A02409A420AD18A
:101440000907E26A090F914205D10F21890408407A
:10145000A16A884201D00120FEBD0020FEBD00002F
:10146000001002400070004088130000F8B51D46CF
:1014700016460F46040003D0A06F002802D007E0F4
:101480000120F8BD002174200155204600F04AF8E3
:101490002420A067206801684908490001602046AF
:1014A00000F05AFB0128ECD0606A002802D02046E8
:1014B00000F0BAFA2068816801229203114381602A
:1014C0002168886852009043384388607105280479
:1014D000226808431168064B1940014311602068D7
:1014E0000168012211430160204600F003FBF8BDB2
:1014F000FFFF00FC094910B5401E884201D90120B8
:1015000010BD074C60610321081F00F047FC00205C
:10151000A06107202061002010BD0000FFFFFF0038
:1015200000E000E010B586B0044614216846FEF7DE
:1015300035FE1249206888421ED111488269012176
:1015400089030A43826182690A4005924269C9009F
:101550000A4342614069084005900E200090022035
:1015600001900020029003200390012004900920A4
:101570006946C006FFF730F906B010BD00380140DB
:1015800000100240FFB50446806F83B017460D4639
:1015900020285ED1002D0AD0002F08D0A168C001FC
:1015A000814207D12069002804D1E80702D0012038
:1015B00007B0F0BD204660300090007D012848D083
:1015C0000098012101750020802108512120A06789
:1015D000FFF7C8F92646403601903782778201200E
:1015E000A1680003814202D12069002805D02F465E
:1015F000002500990020087511E00027F9E7002276
:101600008021204600F036FB002815D1002F15D090
:101610002168387808857F1C708A401E7082708A25
:10162000019B002806980090E9D100224021204625
:1016300000F020FB002808D00320B9E728882168A3
:10164000C005C00D0885AD1CE6E72020A06700207E
:10165000AEE70220ACE7FEE701688A69D243920751
:1016600001D400228A6200688169C943C90703D096
:10167000816901221143816170470000F7B504467A
:1016800000680E468069C043C0062BD4202725463B
:10169000403520688069C043800612D5701CF8D0A0
:1016A000FFF760F90299401AB04201D8002EF0D13C
:1016B000606C384360646F700020A870287001204F
:1016C000FEBD21681020C8612068C7612046FFF771
:1016D000C3FF20684168044A11404160606C0421E6
:1016E0000843E7E70020FEBD00E800FEF0B506680D
:1016F000059C7568064F600D384385438805800D4D
:10170000110408431843204305437560F0BD0000F1
:10171000FF63FF03F8B51D4617460E46044609E071
:10172000681C07D0FFF71EF90699401AA8420BD88B
:10173000002D09D020688169304688430FD00020F1
:10174000B842EDD00020F8BD616C202001436164F7
:10175000403460700020A07020700120F8BD01208E
:10176000EEE70000F7B50027202605460446403581
:1017700028E02046029A0199FFF780FF002801D057
:101780000120FEBD20688069C043800611D4206816
:101790008169C943490702D4218D002917D1C66147
:1017A000206841680E4A1140416067646E70AF70F6
:1017B00013E0FFF7D7F80299411A0198814208D83F
:1017C000002806D020688069C0434007D1D400209B
:1017D000FEBD606C304360646E702F70D0E7000017
:1017E00000E800FE70B516460D4604460FE032468E
:1017F00029462046FFF742FF002801D0012070BD96
:10180000FFF7B0F8801BA84208D8002D06D020684A
:101810008069C0438006EAD4002070BD616C20203E
:1018200001436164403460700020A0702070E5E7DF
:1018300070B516460D46044611E03246294620464C
:10184000FFF71CFF002801D0012070BD681C06D0E6
:10185000FFF788F8801BA84208D8002D06D0206822
:101860008069C0438007E8D4002070BD616C2020EF
:1018700001436164403460700020A0702070E3E791
:1018800030B587B014216846FEF788FC15484269D8
:10189000012189050A43426142690A400592426971
:1018A00049110A434261406909250840ED06059047
:1018B000002210212846FFF74FF810200090012049
:1018C000002401900294694603942846FEF784FFA1
:1018D000802000900194694602942846FEF77CFF20
:1018E00007B030BD0010024010B513481149016027
:1018F00012494160002181600161416181610122E1
:10190000C161C2600162FFF77DF8002801D0FEF7D7
:101910004FFF00210848FFF72BF8002801D0FEF701
:1019200047FF00210448FFF748F8002801D0FEF7E0
:101930003FFF10BD005400404C0000200E09002065
:1019400010B5084806490160022141600649C1609E
:101950008160FFF7F3F9002801D0FEF729FF10BDE1
:101960000030004098000020FF0F000010B50D4827
:101970000B4901604B21C901416000218160C160B8
:1019800001618161C1610C22016242610B464162C9
:101990000A46FFF76BFD002801D0FEF709FF10BDD6
:1019A00000380140A8000020FEE77047704710B5DE
:1019B000FFF7FEF910BD10B594B030216846FEF770
:1019C000EDFB00240F940A2000900D9401200C944C
:1019D00012940E9411940390139410210790109474
:1019E000089404916846FFF77DFB002801D072B689
:1019F000FEE707200C900D940E9400210F940CA884
:101A0000FFF79CFA002801D072B6FEE72120109063
:101A10001294139410A8FFF71DFA002801D072B693
:101A2000FEE714B010BD704710B5818CC90707D010
:101A300001684A6801235B049A43836A1A434A6037
:101A4000818C890707D501684A6801231B049A43E2
:101A5000C36A1A434A60818C490707D501684A68FE
:101A600001239B049A43036B1A434A60818C090744
:101A700007D501684A680123DB039A43436B1A4385
:101A80004A60818CC90607D50268916801231B034F
:101A90009943836B19439160818C890607D501684E
:101AA0008A6801235B039A43C36B1A438A60818C63
:101AB000490612D503685A6801210905046C8A4356
:101AC00022435A60026C8A4207D10268516803239C
:101AD0005B059943436C19435160818C090607D516
:101AE00001684A680123DB04806C9A4302434A6020
:101AF00010BD0000F8B50446002680300660FEF7F1
:101B000031FF054620680068124F000709D5012102
:101B10002B46002249052046009700F0ABF800282C
:101B20000DD12068006840070BD501212B4600220B
:101B300089052046009700F09DF8002801D0032079
:101B4000F8BD2020A067E067266660342675002077
:101B5000F8BD0000FFFFFF0170B5044680682169F1
:101B6000E2690843616900251143084321680A6856
:101B70003C4B1A4002430A60216848680322120362
:101B80009043E26810434860A169206A08432168D5
:101B90008A680B231B029A4302438A603248006B17
:101BA0008007800F16D0012818D0022818D00328EB
:101BB00012D010210120E369C0032C4A2C4E83422D
:101BC0002BD100290ED002290FD004290FD00829CB
:101BD0003FD110E00021EDE70221EBE70421E9E726
:101BE0000821E7E7FFF72EFA03E0104603E0FFF7CE
:101BF00039FA002831D0616840004A088018FEF7A1
:101C00006FFA80B201461039B14222D81849491CF6
:101C100001400007400F08431DE0002906D00229BB
:101C200007D0042907D0082913D108E0FFF70AFAE2
:101C300003E0104603E0FFF715FA00280DD06168B5
:101C40004A081018FEF74CFA80B201461039B1422A
:101C500001D9012501E02168C86000206066A06606
:101C6000284670BDF369FFFF0010024000127A00A1
:101C7000EFFF0000FFB581B005460F460446603512
:101C80000A9E39E0701C37D0FEF76CFE0499401AAA
:101C9000B04222D8002E20D02068016849072BD5F9
:101CA000C069C043000527D401202168C002086232
:101CB00020680168FF22A132914301602068816899
:101CC0004908490081602020A067E06780342060D7
:101CD00000202875032005B0F0BD20680168FF22B0
:101CE000A132914301602068816849084900816000
:101CF0002020A067E067EBE72068C1693846884389
:101D000005D0002103988142BCD00020E3E70121E7
:101D1000F8E700000FB410B504A9074B02AA039816
:101D200000F028F9044602A9002000F0BFFC20467C
:101D300010BC08BC04B01847AD2600082021020CD6
:101D400001D010211046020A01D0104608390209BC
:101D500001D01046091F820801D01046891E420892
:101D600001D0881E7047081A7047F8B5040C8BB272
:101D7000264682B25E430D0C1046370C584336049B
:101D800080190021794116466E43370C36048019BC
:101D9000794126466E438919F8BD00008307FF226A
:101DA000DB0E9A408907090E9940002808DB83085A
:101DB00009489B001B181868904308431860704737
:101DC0000007000F0838830804489B001B18D869D7
:101DD00090430843D861704700E400E000ED00E064
:101DE00002E008C8121F08C1002AFAD170477047E4
:101DF000002001E001C1121F002AFBD17047000042
:101E0000F0B51FB486B00998089A030D002102436B
:101E100014D05148514A18185043051411980128FC
:101E200010981AD0281A401C00264D4F4D49009694
:101E300001910490002812DA444211E01198012423
:101E400049A3012801D11098C1430698119A8460D2
:101E50000360C26041600BB0F0BD4042E4E704465D
:101E6000210500203F4A001C51410391029012E0DD
:101E7000E00707D032463B4601990098FEF700FB89
:101E80000191009032463B4610461946FEF7F8FA9B
:101E900006460F466410002CEAD10498039B0028E4
:101EA000029A0999089806DAFEF7EAFA019B009A65
:101EB000FEF7E6FA05E0FEF74BFB019B009AFEF702
:101EC00047FB04460E460022284BFEF7D9FB03D8F9
:101ED0000020C043014607E00022254B2046314642
:101EE000FEF71CFAFEF7ACFB102409E0002C0ADB1D
:101EF0000A220023FEF70AF9079B30321A55641EA6
:101F000002460A43F2D11122641C079B121B1C19C2
:101F1000119B012B03D0012308430ED10AE0084393
:101F200004D0112010900020119077E71098151A16
:101F30006D1E0BE01098824202DD00236D1C03E051
:101F4000824201DA00236D1E002BEED00698119913
:101F50008260C16030C07EE701FCFFFF104D0000D1
:101F6000000014400000F03F300000000000F0438B
:101F70000000E03FFFB597B00646002518E225288F
:101F800077D100242746FD49049400E00443761CE1
:101F900032780120203A90400842F7D130782A2840
:101FA0000ED00222307801463039092916D804991A
:101FB0000A235943303940181443761C0490F1E742
:101FC000189802C804911890002904DA01204003EF
:101FD00004434842049002200443761C30782E28A3
:101FE00014D1042004437078761C2A2809D118984B
:101FF000761C80C8189009E00A214F43303FC7196A
:10200000761C3078014630390929F5D930786C28AA
:1020100010D006DC4C281AD068280ED06A2817D1B8
:1020200004E0742813D07A2812D110E00120400572
:1020300004430CE00121090501E0032109050C43DB
:102040007178814203D1012000052418761C761C8A
:102050003078119066280BD013DC58287DD009DC2D
:1020600000287BD04528F6D04628F4D047281AD13E
:10207000A5E118E0632835D0642870D0652812D116
:102080009DE170286CD008DC6728F1D069287BD0EE
:102090006E280DD06F2806D1BAE073282ED075288F
:1020A00071D0782859D01A9A199990476D1C7EE101
:1020B0006002400F022809D003280DD00428189888
:1020C00001680DD00D60001D189070E11898EA1796
:1020D00001680D604A60F6E7189801680D80F2E724
:1020E0000D70F0E718986A4601781172001D18907B
:1020F0000020507202A80090012005E0189802C844
:10210000189000200091C04361070DD5002101E027
:102110000199491C0191B94212DA8142F8DB009A17
:10212000515C0029F4D10BE0002101E00199491C28
:1021300001918142FADB019A0099895C0029F5D16D
:10214000019904981A9B471A21463846199A00F0BB
:1021500097FA0199401945180BE04FE02CE113E084
:102160004EE0009800990078491C00911A9A19993C
:1021700090470198401E0190401CF2D121463846FC
:102180001A9B199A10E137E00A2000210090019172
:102190006002410F022907D0189A01CA1892C2178B
:1021A0009446032908D00AE01898C01DC108C90048
:1021B00005C91891944607E000B2C2179446042955
:1021C00002D140B2C1178C4600226146944506DA1E
:1021D0000A460021404291418C462D2102E0210512
:1021E00004D52B216A461173012103E0E10701D0D8
:1021F0002021F7E7029155E00A200AE0102008E0CC
:10220000102000900021042004430191082703E0DE
:1022100008200021019100906002410F022907D09F
:10222000189A01CA189200229446032908D008E09F
:102230001898C01DC108C90005C91891944603E04B
:1022400080B2042900D1C0B200210291210729D512
:102250001199702906D0009A1021019B4A401A4317
:1022600005D00EE040216A461173012108E0614665
:10227000014306D030216A4611731199517302212E
:102280000291009A0821019B4A401A430AD16146F3
:10229000014301D1610705D530216A46117301213F
:1022A0007F1E02911199582904D035A10E910DA9D4
:1022B0000D910DE037A1F9E76146019B009AFDF70A
:1022C00025FF0E9B8C469B5C0D9A521E0D9213703F
:1022D00061460143F0D10D9805A9081A20300190FC
:1022E000600703D501200004844300E00127019822
:1022F000874201DD381A00E0002001990090411862
:10230000029809180498401A0490E00306D4214664
:102310001A9B199A049800F0B3F94519002706E0B2
:1023200003A81A9AC05D199990476D1C7F1C0298EA
:102330008742F5DBE0030CD521461A9B199A0498D5
:1023400000F09EF9451904E01A9A30201999904737
:102350006D1C0099481E00900029F5DC08E00D98DE
:102360000D990078491C0D911A9A199990476D1C86
:102370000199481E01900029F1DC63E10928010060
:1023800030313233343536373839616263646566EB
:1023900000000000303132333435363738394142AD
:1023A000434445460000000000F05AF94519761CE8
:1023B0003078002800D0E2E528461BB0F0BD600769
:1023C00000D406271898C01DC108C90048680A68CB
:1023D0000831C30FDB071891190001D09CA108E058
:1023E000210501D59BA104E0E10701D09AA100E0FD
:1023F0009AA1430011985B08109165280CD006DC67
:10240000452809D046281DD0472841D141E06628FB
:1024100018D067283CD13CE00021112F01DB1120AE
:1024200000E0781C0191009008A911A8FFF7E8FCD2
:10243000139905910021119A15927F1C129801970A
:10244000009150E00120C00703900120019008A9ED
:10245000009711A8FFF7D4FC139A14990592002253
:10246000119B009212981593059A0192002901D0B0
:10247000104602E0791C40180190381A01D50198E5
:1024800004E04042401E0090781C0190C01B029066
:1024900043E0012F00DA01270021112F01DD112077
:1024A00000E038460191009008A911A8FFF7A8FCA8
:1024B00013990591119A0021129815920091019794
:1024C00021070CD40599B94201DB019900E0019183
:1024D000012904DD159A491E515C302906D0B84205
:1024E00001DA011D05DA0121029115E00199491E69
:1024F000EDE7002805DC0099411800910199091ABF
:1025000003E0019A411C914200DD01910099401ABB
:10251000401C02900120C0070390200706D40299B6
:102520000198814202DB0020C043029000206946EE
:10253000C87707AF012103980337C907884224D021
:10254000022011902B201290039800280CDA4042B0
:1025500003902D20129007E00A210398FDF7C0FD9B
:1025600030317F1E039039701199481E1190002957
:10257000F2DC03980028EFD1791E129808703078A9
:10258000202108404530BF1E387006A8C01BC01D62
:10259000039010980078002800D00120019941187C
:1025A0000298C0170918039809180498401A401E89
:1025B0000490E00306D421461A9B199A049800F06F
:1025C0005FF8451910980078002803D01A9A1999D5
:1025D00090476D1CE00324D521461A9B199A049854
:1025E00000F04EF845191CE00098002807DB009920
:1025F0000598884203DD1598405C199901E0199906
:1026000030201A9A904700986D1C401C0090029848
:10261000401E0290002804D11A9A2E201999904742
:102620006D1C0199481E01900029DDDC05E0387819
:102630001A9A7F1C199990476D1C0399481E0390A4
:102640000029F4DC21461A9B199A0498ACE6000094
:102650002D0000002B000000200000000000000002
:10266000F8B5044600251E461746880404D405E044
:1026700039462020B0476D1C641EF9D52846F8BDA8
:10268000FFB50446002581B01E46C80301D530279A
:1026900000E02027880404D505E038460399B047B8
:1026A0006D1C641EF9D5284605B0F0BD0A68531CA0
:1026B0000B601070704730B50246FF2000290FD024
:1026C0003124137858400823521C050602D54000D7
:1026D000604000E04000C0B25B1EF6D1491EF0D160
:1026E00030BD000010B5002801D0054801E00448C5
:1026F000C01F00F00FF90120FEF75CF810BD0000CC
:102700006D30000086B0FEF75BFBFFF754F9FFF772
:10271000B7F8FFF7E9F8FFF729F9FFF711F92CA14E
:102720002E48FFF7F7FA7D23DB0028222B492C489F
:10273000FEF728FF00F0E4F80020FFF7D3FF294F51
:102740002948FEF72DFB6420FEF734F8B868401CDA
:10275000B8600A28F4DB09201021C006FEF7F4F85F
:102760000020B86000F0C2F8786000F063F83860CC
:10277000FF217E68C905CE420FD2FDF76AFD0546EE
:102780000C463046FDF765FD0B46024602A905944E
:102790002CC116A1009501940EE0FDF75AFD0546E7
:1027A0000C463046FDF755FD0B46024602A905943E
:1027B0002CC117A1009501940848FFF7ABFA7D23BF
:1027C000DB00282205490648FEF7DCFEB8E70000DA
:1027D00028286E6E2D6E6E29290D0A002400002017
:1027E000A8000020000000209800002028282B25A9
:1027F00030352E31662C2530352E31665F2B253055
:10280000352E31662C2530352E316629290D0A00EA
:1028100028282D2530352E31662C2530352E316671
:102820005F2D2530352E31662C2530352E31662929
:10283000290D0A0010B500F007F8002801D0014862
:10284000006810BD1C0000203EB50920800200F089
:1028500061F81420FDF7AEFF7D20C0000090062334
:1028600001AA88211B48FEF727F9022101A8FFF7DA
:1028700022FF69468979884208D101A802210330E4
:10288000FFF719FF6946497A884201D000203EBD12
:1028900068468088104940BA484310498013401860
:1028A000FDF7C5FC0E4D2946FDF783FC0D4C60601D
:1028B0006846017AC279080210430B4940BA48437E
:1028C000000BFDF7BFFC2946FDF773FC20600120DB
:1028D0003EBD00004C000020171100006CEEFFFF11
:1028E0000000C8421C0000207102000010B5FFF774
:1028F000ABFF002801D00148406810BD1C0000203B
:1029000010B5034800F006F80A20FDF753FF10BD8C
:10291000A23000001CB5020A69460A7148717D2088
:10292000C0000090022301AA88210248FEF74CF95A
:102930001CBD00004C000020000000000000000052
:102940000102030406070809000000000102030455
:10295000702900080000002024000000E01D00088D
:1029600094290008240000200C050000F01D000838
:102970000000000000000000000000000100000056
:10298000040000000000000000127A0000000000B7
:042990000000000043
:04000005080000B13E
:00000001FF
